{
  "_format": "hh-sol-artifact-1",
  "contractName": "ProofOfPresence",
  "sourceName": "contracts/ProofOfPresence.sol",
  "abi": [
    {
      "inputs": [
        {
          "internalType": "address",
          "name": "_adminAddress",
          "type": "address"
        },
        {
          "internalType": "address",
          "name": "_relayerAddress",
          "type": "address"
        }
      ],
      "stateMutability": "nonpayable",
      "type": "constructor"
    },
    {
      "anonymous": false,
      "inputs": [
        {
          "indexed": true,
          "internalType": "address",
          "name": "owner",
          "type": "address"
        },
        {
          "indexed": true,
          "internalType": "address",
          "name": "approved",
          "type": "address"
        },
        {
          "indexed": true,
          "internalType": "uint256",
          "name": "tokenId",
          "type": "uint256"
        }
      ],
      "name": "Approval",
      "type": "event"
    },
    {
      "anonymous": false,
      "inputs": [
        {
          "indexed": true,
          "internalType": "address",
          "name": "owner",
          "type": "address"
        },
        {
          "indexed": true,
          "internalType": "address",
          "name": "operator",
          "type": "address"
        },
        {
          "indexed": false,
          "internalType": "bool",
          "name": "approved",
          "type": "bool"
        }
      ],
      "name": "ApprovalForAll",
      "type": "event"
    },
    {
      "anonymous": false,
      "inputs": [
        {
          "indexed": true,
          "internalType": "bytes32",
          "name": "role",
          "type": "bytes32"
        },
        {
          "indexed": true,
          "internalType": "bytes32",
          "name": "previousAdminRole",
          "type": "bytes32"
        },
        {
          "indexed": true,
          "internalType": "bytes32",
          "name": "newAdminRole",
          "type": "bytes32"
        }
      ],
      "name": "RoleAdminChanged",
      "type": "event"
    },
    {
      "anonymous": false,
      "inputs": [
        {
          "indexed": true,
          "internalType": "bytes32",
          "name": "role",
          "type": "bytes32"
        },
        {
          "indexed": true,
          "internalType": "address",
          "name": "account",
          "type": "address"
        },
        {
          "indexed": true,
          "internalType": "address",
          "name": "sender",
          "type": "address"
        }
      ],
      "name": "RoleGranted",
      "type": "event"
    },
    {
      "anonymous": false,
      "inputs": [
        {
          "indexed": true,
          "internalType": "bytes32",
          "name": "role",
          "type": "bytes32"
        },
        {
          "indexed": true,
          "internalType": "address",
          "name": "account",
          "type": "address"
        },
        {
          "indexed": true,
          "internalType": "address",
          "name": "sender",
          "type": "address"
        }
      ],
      "name": "RoleRevoked",
      "type": "event"
    },
    {
      "anonymous": false,
      "inputs": [
        {
          "indexed": true,
          "internalType": "address",
          "name": "from",
          "type": "address"
        },
        {
          "indexed": true,
          "internalType": "address",
          "name": "to",
          "type": "address"
        },
        {
          "indexed": true,
          "internalType": "uint256",
          "name": "tokenId",
          "type": "uint256"
        }
      ],
      "name": "Transfer",
      "type": "event"
    },
    {
      "inputs": [],
      "name": "DEFAULT_ADMIN_ROLE",
      "outputs": [
        {
          "internalType": "bytes32",
          "name": "",
          "type": "bytes32"
        }
      ],
      "stateMutability": "view",
      "type": "function"
    },
    {
      "inputs": [],
      "name": "RELAYER_ROLE",
      "outputs": [
        {
          "internalType": "bytes32",
          "name": "",
          "type": "bytes32"
        }
      ],
      "stateMutability": "view",
      "type": "function"
    },
    {
      "inputs": [
        {
          "internalType": "address",
          "name": "to",
          "type": "address"
        },
        {
          "internalType": "uint256",
          "name": "tokenId",
          "type": "uint256"
        }
      ],
      "name": "approve",
      "outputs": [],
      "stateMutability": "nonpayable",
      "type": "function"
    },
    {
      "inputs": [
        {
          "internalType": "address",
          "name": "owner",
          "type": "address"
        }
      ],
      "name": "balanceOf",
      "outputs": [
        {
          "internalType": "uint256",
          "name": "",
          "type": "uint256"
        }
      ],
      "stateMutability": "view",
      "type": "function"
    },
    {
      "inputs": [
        {
          "internalType": "string",
          "name": "_metadataURI",
          "type": "string"
        }
      ],
      "name": "createEvent",
      "outputs": [],
      "stateMutability": "nonpayable",
      "type": "function"
    },
    {
      "inputs": [
        {
          "internalType": "uint256",
          "name": "",
          "type": "uint256"
        }
      ],
      "name": "events",
      "outputs": [
        {
          "internalType": "address",
          "name": "organizer",
          "type": "address"
        },
        {
          "internalType": "string",
          "name": "metadataURI",
          "type": "string"
        },
        {
          "internalType": "bool",
          "name": "exists",
          "type": "bool"
        }
      ],
      "stateMutability": "view",
      "type": "function"
    },
    {
      "inputs": [
        {
          "internalType": "uint256",
          "name": "tokenId",
          "type": "uint256"
        }
      ],
      "name": "getApproved",
      "outputs": [
        {
          "internalType": "address",
          "name": "",
          "type": "address"
        }
      ],
      "stateMutability": "view",
      "type": "function"
    },
    {
      "inputs": [
        {
          "internalType": "bytes32",
          "name": "role",
          "type": "bytes32"
        }
      ],
      "name": "getRoleAdmin",
      "outputs": [
        {
          "internalType": "bytes32",
          "name": "",
          "type": "bytes32"
        }
      ],
      "stateMutability": "view",
      "type": "function"
    },
    {
      "inputs": [
        {
          "internalType": "bytes32",
          "name": "role",
          "type": "bytes32"
        },
        {
          "internalType": "address",
          "name": "account",
          "type": "address"
        }
      ],
      "name": "grantRole",
      "outputs": [],
      "stateMutability": "nonpayable",
      "type": "function"
    },
    {
      "inputs": [
        {
          "internalType": "uint256",
          "name": "",
          "type": "uint256"
        },
        {
          "internalType": "address",
          "name": "",
          "type": "address"
        }
      ],
      "name": "hasClaimed",
      "outputs": [
        {
          "internalType": "bool",
          "name": "",
          "type": "bool"
        }
      ],
      "stateMutability": "view",
      "type": "function"
    },
    {
      "inputs": [
        {
          "internalType": "bytes32",
          "name": "role",
          "type": "bytes32"
        },
        {
          "internalType": "address",
          "name": "account",
          "type": "address"
        }
      ],
      "name": "hasRole",
      "outputs": [
        {
          "internalType": "bool",
          "name": "",
          "type": "bool"
        }
      ],
      "stateMutability": "view",
      "type": "function"
    },
    {
      "inputs": [
        {
          "internalType": "address",
          "name": "owner",
          "type": "address"
        },
        {
          "internalType": "address",
          "name": "operator",
          "type": "address"
        }
      ],
      "name": "isApprovedForAll",
      "outputs": [
        {
          "internalType": "bool",
          "name": "",
          "type": "bool"
        }
      ],
      "stateMutability": "view",
      "type": "function"
    },
    {
      "inputs": [
        {
          "internalType": "uint256",
          "name": "_eventId",
          "type": "uint256"
        },
        {
          "internalType": "address",
          "name": "_attendee",
          "type": "address"
        }
      ],
      "name": "mintBadge",
      "outputs": [],
      "stateMutability": "nonpayable",
      "type": "function"
    },
    {
      "inputs": [],
      "name": "name",
      "outputs": [
        {
          "internalType": "string",
          "name": "",
          "type": "string"
        }
      ],
      "stateMutability": "view",
      "type": "function"
    },
    {
      "inputs": [
        {
          "internalType": "uint256",
          "name": "tokenId",
          "type": "uint256"
        }
      ],
      "name": "ownerOf",
      "outputs": [
        {
          "internalType": "address",
          "name": "",
          "type": "address"
        }
      ],
      "stateMutability": "view",
      "type": "function"
    },
    {
      "inputs": [
        {
          "internalType": "bytes32",
          "name": "role",
          "type": "bytes32"
        },
        {
          "internalType": "address",
          "name": "account",
          "type": "address"
        }
      ],
      "name": "renounceRole",
      "outputs": [],
      "stateMutability": "nonpayable",
      "type": "function"
    },
    {
      "inputs": [
        {
          "internalType": "bytes32",
          "name": "role",
          "type": "bytes32"
        },
        {
          "internalType": "address",
          "name": "account",
          "type": "address"
        }
      ],
      "name": "revokeRole",
      "outputs": [],
      "stateMutability": "nonpayable",
      "type": "function"
    },
    {
      "inputs": [
        {
          "internalType": "address",
          "name": "from",
          "type": "address"
        },
        {
          "internalType": "address",
          "name": "to",
          "type": "address"
        },
        {
          "internalType": "uint256",
          "name": "tokenId",
          "type": "uint256"
        }
      ],
      "name": "safeTransferFrom",
      "outputs": [],
      "stateMutability": "nonpayable",
      "type": "function"
    },
    {
      "inputs": [
        {
          "internalType": "address",
          "name": "from",
          "type": "address"
        },
        {
          "internalType": "address",
          "name": "to",
          "type": "address"
        },
        {
          "internalType": "uint256",
          "name": "tokenId",
          "type": "uint256"
        },
        {
          "internalType": "bytes",
          "name": "data",
          "type": "bytes"
        }
      ],
      "name": "safeTransferFrom",
      "outputs": [],
      "stateMutability": "nonpayable",
      "type": "function"
    },
    {
      "inputs": [
        {
          "internalType": "address",
          "name": "operator",
          "type": "address"
        },
        {
          "internalType": "bool",
          "name": "approved",
          "type": "bool"
        }
      ],
      "name": "setApprovalForAll",
      "outputs": [],
      "stateMutability": "nonpayable",
      "type": "function"
    },
    {
      "inputs": [
        {
          "internalType": "bytes4",
          "name": "interfaceId",
          "type": "bytes4"
        }
      ],
      "name": "supportsInterface",
      "outputs": [
        {
          "internalType": "bool",
          "name": "",
          "type": "bool"
        }
      ],
      "stateMutability": "view",
      "type": "function"
    },
    {
      "inputs": [],
      "name": "symbol",
      "outputs": [
        {
          "internalType": "string",
          "name": "",
          "type": "string"
        }
      ],
      "stateMutability": "view",
      "type": "function"
    },
    {
      "inputs": [
        {
          "internalType": "uint256",
          "name": "_tokenId",
          "type": "uint256"
        }
      ],
      "name": "tokenURI",
      "outputs": [
        {
          "internalType": "string",
          "name": "",
          "type": "string"
        }
      ],
      "stateMutability": "view",
      "type": "function"
    },
    {
      "inputs": [
        {
          "internalType": "address",
          "name": "from",
          "type": "address"
        },
        {
          "internalType": "address",
          "name": "to",
          "type": "address"
        },
        {
          "internalType": "uint256",
          "name": "tokenId",
          "type": "uint256"
        }
      ],
      "name": "transferFrom",
      "outputs": [],
      "stateMutability": "nonpayable",
      "type": "function"
    }
  ],
  "bytecode": "0x60806040523480156200001157600080fd5b5060405162003f1b38038062003f1b8339818101604052810190620000379190620002e7565b6040518060400160405280601181526020017f50726f6f66206f662050726573656e63650000000000000000000000000000008152506040518060400160405280600481526020017f504f4150000000000000000000000000000000000000000000000000000000008152508160009081620000b49190620005a8565b508060019081620000c69190620005a8565b505050620000de6000801b836200011860201b60201c565b620001107fe2b7fb3b832174769106daebcfd6d1970523240dda11281102db9363b83b0dc4826200011860201b60201c565b50506200068f565b6200012a82826200020a60201b60201c565b620002065760016006600084815260200190815260200160002060000160008373ffffffffffffffffffffffffffffffffffffffff1673ffffffffffffffffffffffffffffffffffffffff16815260200190815260200160002060006101000a81548160ff021916908315150217905550620001ab6200027560201b60201c565b73ffffffffffffffffffffffffffffffffffffffff168173ffffffffffffffffffffffffffffffffffffffff16837f2f8788117e7eff1d82e926ec794901d17c78024a50270940304540a733656f0d60405160405180910390a45b5050565b60006006600084815260200190815260200160002060000160008373ffffffffffffffffffffffffffffffffffffffff1673ffffffffffffffffffffffffffffffffffffffff16815260200190815260200160002060009054906101000a900460ff16905092915050565b600033905090565b600080fd5b600073ffffffffffffffffffffffffffffffffffffffff82169050919050565b6000620002af8262000282565b9050919050565b620002c181620002a2565b8114620002cd57600080fd5b50565b600081519050620002e181620002b6565b92915050565b600080604083850312156200030157620003006200027d565b5b60006200031185828601620002d0565b92505060206200032485828601620002d0565b9150509250929050565b600081519050919050565b7f4e487b7100000000000000000000000000000000000000000000000000000000600052604160045260246000fd5b7f4e487b7100000000000000000000000000000000000000000000000000000000600052602260045260246000fd5b60006002820490506001821680620003b057607f821691505b602082108103620003c657620003c562000368565b5b50919050565b60008190508160005260206000209050919050565b60006020601f8301049050919050565b600082821b905092915050565b600060088302620004307fffffffffffffffffffffffffffffffffffffffffffffffffffffffffffffffff82620003f1565b6200043c8683620003f1565b95508019841693508086168417925050509392505050565b6000819050919050565b6000819050919050565b600062000489620004836200047d8462000454565b6200045e565b62000454565b9050919050565b6000819050919050565b620004a58362000468565b620004bd620004b48262000490565b848454620003fe565b825550505050565b600090565b620004d4620004c5565b620004e18184846200049a565b505050565b5b818110156200050957620004fd600082620004ca565b600181019050620004e7565b5050565b601f82111562000558576200052281620003cc565b6200052d84620003e1565b810160208510156200053d578190505b620005556200054c85620003e1565b830182620004e6565b50505b505050565b600082821c905092915050565b60006200057d600019846008026200055d565b1980831691505092915050565b60006200059883836200056a565b9150826002028217905092915050565b620005b3826200032e565b67ffffffffffffffff811115620005cf57620005ce62000339565b5b620005db825462000397565b620005e88282856200050d565b600060209050601f8311600181146200062057600084156200060b578287015190505b6200061785826200058a565b86555062000687565b601f1984166200063086620003cc565b60005b828110156200065a5784890151825560018201915060208501945060208101905062000633565b868310156200067a578489015162000676601f8916826200056a565b8355505b6001600288020188555050505b505050505050565b61387c806200069f6000396000f3fe608060405234801561001057600080fd5b50600436106101585760003560e01c8063873f6f9e116100c3578063a217fddf1161007c578063a217fddf146103fd578063a22cb4651461041b578063b88d4fde14610437578063c87b56dd14610453578063d547741f14610483578063e985e9c51461049f57610158565b8063873f6f9e1461032957806391d1485414610359578063926d7d7f1461038957806395d89b41146103a75780639bc2bc71146103c5578063a0d56052146103e157610158565b8063248a9ca311610115578063248a9ca3146102455780632f2ff15d1461027557806336568abe1461029157806342842e0e146102ad5780636352211e146102c957806370a08231146102f957610158565b806301ffc9a71461015d57806306fdde031461018d578063081812fc146101ab578063095ea7b3146101db5780630b791430146101f757806323b872dd14610229575b600080fd5b610177600480360381019061017291906122bb565b6104cf565b6040516101849190612303565b60405180910390f35b6101956104e1565b6040516101a291906123ae565b60405180910390f35b6101c560048036038101906101c09190612406565b610573565b6040516101d29190612474565b60405180910390f35b6101f560048036038101906101f091906124bb565b6105b9565b005b610211600480360381019061020c9190612406565b6106d0565b604051610220939291906124fb565b60405180910390f35b610243600480360381019061023e9190612539565b6107af565b005b61025f600480360381019061025a91906125c2565b61080f565b60405161026c91906125fe565b60405180910390f35b61028f600480360381019061028a9190612619565b61082f565b005b6102ab60048036038101906102a69190612619565b610850565b005b6102c760048036038101906102c29190612539565b6108d3565b005b6102e360048036038101906102de9190612406565b6108f3565b6040516102f09190612474565b60405180910390f35b610313600480360381019061030e9190612659565b610979565b6040516103209190612695565b60405180910390f35b610343600480360381019061033e91906126b0565b610a30565b6040516103509190612303565b60405180910390f35b610373600480360381019061036e9190612619565b610a5f565b6040516103809190612303565b60405180910390f35b610391610aca565b60405161039e91906125fe565b60405180910390f35b6103af610aee565b6040516103bc91906123ae565b60405180910390f35b6103df60048036038101906103da9190612825565b610b80565b005b6103fb60048036038101906103f691906126b0565b610c63565b005b610405610e37565b60405161041291906125fe565b60405180910390f35b6104356004803603810190610430919061289a565b610e3e565b005b610451600480360381019061044c919061297b565b610e54565b005b61046d60048036038101906104689190612406565b610eb6565b60405161047a91906123ae565b60405180910390f35b61049d60048036038101906104989190612619565b610fbf565b005b6104b960048036038101906104b491906129fe565b610fe0565b6040516104c69190612303565b60405180910390f35b60006104da82611074565b9050919050565b6060600080546104f090612a6d565b80601f016020809104026020016040519081016040528092919081815260200182805461051c90612a6d565b80156105695780601f1061053e57610100808354040283529160200191610569565b820191906000526020600020905b81548152906001019060200180831161054c57829003601f168201915b5050505050905090565b600061057e826110ee565b6004600083815260200190815260200160002060009054906101000a900473ffffffffffffffffffffffffffffffffffffffff169050919050565b60006105c4826108f3565b90508073ffffffffffffffffffffffffffffffffffffffff168373ffffffffffffffffffffffffffffffffffffffff1603610634576040517f08c379a000000000000000000000000000000000000000000000000000000000815260040161062b90612b10565b60405180910390fd5b8073ffffffffffffffffffffffffffffffffffffffff16610653611139565b73ffffffffffffffffffffffffffffffffffffffff16148061068257506106818161067c611139565b610fe0565b5b6106c1576040517f08c379a00000000000000000000000000000000000000000000000000000000081526004016106b890612ba2565b60405180910390fd5b6106cb8383611141565b505050565b60096020528060005260406000206000915090508060000160009054906101000a900473ffffffffffffffffffffffffffffffffffffffff169080600101805461071990612a6d565b80601f016020809104026020016040519081016040528092919081815260200182805461074590612a6d565b80156107925780601f1061076757610100808354040283529160200191610792565b820191906000526020600020905b81548152906001019060200180831161077557829003601f168201915b5050505050908060020160009054906101000a900460ff16905083565b6107c06107ba611139565b826111fa565b6107ff576040517f08c379a00000000000000000000000000000000000000000000000000000000081526004016107f690612c34565b60405180910390fd5b61080a83838361128f565b505050565b600060066000838152602001908152602001600020600101549050919050565b6108388261080f565b61084181611588565b61084b838361159c565b505050565b610858611139565b73ffffffffffffffffffffffffffffffffffffffff168173ffffffffffffffffffffffffffffffffffffffff16146108c5576040517f08c379a00000000000000000000000000000000000000000000000000000000081526004016108bc90612cc6565b60405180910390fd5b6108cf828261167d565b5050565b6108ee83838360405180602001604052806000815250610e54565b505050565b6000806108ff8361175f565b9050600073ffffffffffffffffffffffffffffffffffffffff168173ffffffffffffffffffffffffffffffffffffffff1603610970576040517f08c379a000000000000000000000000000000000000000000000000000000000815260040161096790612d32565b60405180910390fd5b80915050919050565b60008073ffffffffffffffffffffffffffffffffffffffff168273ffffffffffffffffffffffffffffffffffffffff16036109e9576040517f08c379a00000000000000000000000000000000000000000000000000000000081526004016109e090612dc4565b60405180910390fd5b600360008373ffffffffffffffffffffffffffffffffffffffff1673ffffffffffffffffffffffffffffffffffffffff168152602001908152602001600020549050919050565b600a6020528160005260406000206020528060005260406000206000915091509054906101000a900460ff1681565b60006006600084815260200190815260200160002060000160008373ffffffffffffffffffffffffffffffffffffffff1673ffffffffffffffffffffffffffffffffffffffff16815260200190815260200160002060009054906101000a900460ff16905092915050565b7fe2b7fb3b832174769106daebcfd6d1970523240dda11281102db9363b83b0dc481565b606060018054610afd90612a6d565b80601f0160208091040260200160405190810160405280929190818152602001828054610b2990612a6d565b8015610b765780601f10610b4b57610100808354040283529160200191610b76565b820191906000526020600020905b815481529060010190602001808311610b5957829003601f168201915b5050505050905090565b610b8a600761179c565b6000610b9660076117b2565b905060405180606001604052803373ffffffffffffffffffffffffffffffffffffffff168152602001838152602001600115158152506009600083815260200190815260200160002060008201518160000160006101000a81548173ffffffffffffffffffffffffffffffffffffffff021916908373ffffffffffffffffffffffffffffffffffffffff1602179055506020820151816001019081610c3b9190612f90565b5060408201518160020160006101000a81548160ff0219169083151502179055509050505050565b7fe2b7fb3b832174769106daebcfd6d1970523240dda11281102db9363b83b0dc4610c8d81611588565b6009600084815260200190815260200160002060020160009054906101000a900460ff16610cf0576040517f08c379a0000000000000000000000000000000000000000000000000000000008152600401610ce7906130ae565b60405180910390fd5b600a600084815260200190815260200160002060008373ffffffffffffffffffffffffffffffffffffffff1673ffffffffffffffffffffffffffffffffffffffff16815260200190815260200160002060009054906101000a900460ff1615610d8e576040517f08c379a0000000000000000000000000000000000000000000000000000000008152600401610d8590613140565b60405180910390fd5b610d98600861179c565b6000610da460086117b2565b90506001600a600086815260200190815260200160002060008573ffffffffffffffffffffffffffffffffffffffff1673ffffffffffffffffffffffffffffffffffffffff16815260200190815260200160002060006101000a81548160ff02191690831515021790555083600b600083815260200190815260200160002081905550610e3183826117c0565b50505050565b6000801b81565b610e50610e49611139565b83836117de565b5050565b610e65610e5f611139565b836111fa565b610ea4576040517f08c379a0000000000000000000000000000000000000000000000000000000008152600401610e9b90612c34565b60405180910390fd5b610eb08484848461194a565b50505050565b6060610ec1826119a6565b610f00576040517f08c379a0000000000000000000000000000000000000000000000000000000008152600401610ef7906131d2565b60405180910390fd5b6000600b6000848152602001908152602001600020549050600960008281526020019081526020016000206001018054610f3990612a6d565b80601f0160208091040260200160405190810160405280929190818152602001828054610f6590612a6d565b8015610fb25780601f10610f8757610100808354040283529160200191610fb2565b820191906000526020600020905b815481529060010190602001808311610f9557829003601f168201915b5050505050915050919050565b610fc88261080f565b610fd181611588565b610fdb838361167d565b505050565b6000600560008473ffffffffffffffffffffffffffffffffffffffff1673ffffffffffffffffffffffffffffffffffffffff16815260200190815260200160002060008373ffffffffffffffffffffffffffffffffffffffff1673ffffffffffffffffffffffffffffffffffffffff16815260200190815260200160002060009054906101000a900460ff16905092915050565b60007f7965db0b000000000000000000000000000000000000000000000000000000007bffffffffffffffffffffffffffffffffffffffffffffffffffffffff1916827bffffffffffffffffffffffffffffffffffffffffffffffffffffffff191614806110e757506110e6826119e7565b5b9050919050565b6110f7816119a6565b611136576040517f08c379a000000000000000000000000000000000000000000000000000000000815260040161112d90612d32565b60405180910390fd5b50565b600033905090565b816004600083815260200190815260200160002060006101000a81548173ffffffffffffffffffffffffffffffffffffffff021916908373ffffffffffffffffffffffffffffffffffffffff160217905550808273ffffffffffffffffffffffffffffffffffffffff166111b4836108f3565b73ffffffffffffffffffffffffffffffffffffffff167f8c5be1e5ebec7d5bd14f71427d1e84f3dd0314c0f7b2291e5b200ac8c7c3b92560405160405180910390a45050565b600080611206836108f3565b90508073ffffffffffffffffffffffffffffffffffffffff168473ffffffffffffffffffffffffffffffffffffffff16148061124857506112478185610fe0565b5b8061128657508373ffffffffffffffffffffffffffffffffffffffff1661126e84610573565b73ffffffffffffffffffffffffffffffffffffffff16145b91505092915050565b8273ffffffffffffffffffffffffffffffffffffffff166112af826108f3565b73ffffffffffffffffffffffffffffffffffffffff1614611305576040517f08c379a00000000000000000000000000000000000000000000000000000000081526004016112fc90613264565b60405180910390fd5b600073ffffffffffffffffffffffffffffffffffffffff168273ffffffffffffffffffffffffffffffffffffffff1603611374576040517f08c379a000000000000000000000000000000000000000000000000000000000815260040161136b906132f6565b60405180910390fd5b6113818383836001611ac9565b8273ffffffffffffffffffffffffffffffffffffffff166113a1826108f3565b73ffffffffffffffffffffffffffffffffffffffff16146113f7576040517f08c379a00000000000000000000000000000000000000000000000000000000081526004016113ee90613264565b60405180910390fd5b6004600082815260200190815260200160002060006101000a81549073ffffffffffffffffffffffffffffffffffffffff02191690556001600360008573ffffffffffffffffffffffffffffffffffffffff1673ffffffffffffffffffffffffffffffffffffffff168152602001908152602001600020600082825403925050819055506001600360008473ffffffffffffffffffffffffffffffffffffffff1673ffffffffffffffffffffffffffffffffffffffff16815260200190815260200160002060008282540192505081905550816002600083815260200190815260200160002060006101000a81548173ffffffffffffffffffffffffffffffffffffffff021916908373ffffffffffffffffffffffffffffffffffffffff160217905550808273ffffffffffffffffffffffffffffffffffffffff168473ffffffffffffffffffffffffffffffffffffffff167fddf252ad1be2c89b69c2b068fc378daa952ba7f163c4a11628f55a4df523b3ef60405160405180910390a46115838383836001611acf565b505050565b61159981611594611139565b611ad5565b50565b6115a68282610a5f565b6116795760016006600084815260200190815260200160002060000160008373ffffffffffffffffffffffffffffffffffffffff1673ffffffffffffffffffffffffffffffffffffffff16815260200190815260200160002060006101000a81548160ff02191690831515021790555061161e611139565b73ffffffffffffffffffffffffffffffffffffffff168173ffffffffffffffffffffffffffffffffffffffff16837f2f8788117e7eff1d82e926ec794901d17c78024a50270940304540a733656f0d60405160405180910390a45b5050565b6116878282610a5f565b1561175b5760006006600084815260200190815260200160002060000160008373ffffffffffffffffffffffffffffffffffffffff1673ffffffffffffffffffffffffffffffffffffffff16815260200190815260200160002060006101000a81548160ff021916908315150217905550611700611139565b73ffffffffffffffffffffffffffffffffffffffff168173ffffffffffffffffffffffffffffffffffffffff16837ff6391f5c32d9c69d2a47ea670b442974b53935d1edc7fd64eb21e047a839171b60405160405180910390a45b5050565b60006002600083815260200190815260200160002060009054906101000a900473ffffffffffffffffffffffffffffffffffffffff169050919050565b6001816000016000828254019250508190555050565b600081600001549050919050565b6117da828260405180602001604052806000815250611b5a565b5050565b8173ffffffffffffffffffffffffffffffffffffffff168373ffffffffffffffffffffffffffffffffffffffff160361184c576040517f08c379a000000000000000000000000000000000000000000000000000000000815260040161184390613362565b60405180910390fd5b80600560008573ffffffffffffffffffffffffffffffffffffffff1673ffffffffffffffffffffffffffffffffffffffff16815260200190815260200160002060008473ffffffffffffffffffffffffffffffffffffffff1673ffffffffffffffffffffffffffffffffffffffff16815260200190815260200160002060006101000a81548160ff0219169083151502179055508173ffffffffffffffffffffffffffffffffffffffff168373ffffffffffffffffffffffffffffffffffffffff167f17307eab39ab6107e8899845ad3d59bd9653f200f220920489ca2b5937696c318360405161193d9190612303565b60405180910390a3505050565b61195584848461128f565b61196184848484611bb5565b6119a0576040517f08c379a0000000000000000000000000000000000000000000000000000000008152600401611997906133f4565b60405180910390fd5b50505050565b60008073ffffffffffffffffffffffffffffffffffffffff166119c88361175f565b73ffffffffffffffffffffffffffffffffffffffff1614159050919050565b60007f80ac58cd000000000000000000000000000000000000000000000000000000007bffffffffffffffffffffffffffffffffffffffffffffffffffffffff1916827bffffffffffffffffffffffffffffffffffffffffffffffffffffffff19161480611ab257507f5b5e139f000000000000000000000000000000000000000000000000000000007bffffffffffffffffffffffffffffffffffffffffffffffffffffffff1916827bffffffffffffffffffffffffffffffffffffffffffffffffffffffff1916145b80611ac25750611ac182611d3c565b5b9050919050565b50505050565b50505050565b611adf8282610a5f565b611b5657611aec81611da6565b611afa8360001c6020611dd3565b604051602001611b0b9291906134e8565b6040516020818303038152906040526040517f08c379a0000000000000000000000000000000000000000000000000000000008152600401611b4d91906123ae565b60405180910390fd5b5050565b611b64838361200f565b611b716000848484611bb5565b611bb0576040517f08c379a0000000000000000000000000000000000000000000000000000000008152600401611ba7906133f4565b60405180910390fd5b505050565b6000611bd68473ffffffffffffffffffffffffffffffffffffffff1661222c565b15611d2f578373ffffffffffffffffffffffffffffffffffffffff1663150b7a02611bff611139565b8786866040518563ffffffff1660e01b8152600401611c219493929190613577565b6020604051808303816000875af1925050508015611c5d57506040513d601f19601f82011682018060405250810190611c5a91906135d8565b60015b611cdf573d8060008114611c8d576040519150601f19603f3d011682016040523d82523d6000602084013e611c92565b606091505b506000815103611cd7576040517f08c379a0000000000000000000000000000000000000000000000000000000008152600401611cce906133f4565b60405180910390fd5b805181602001fd5b63150b7a0260e01b7bffffffffffffffffffffffffffffffffffffffffffffffffffffffff1916817bffffffffffffffffffffffffffffffffffffffffffffffffffffffff191614915050611d34565b600190505b949350505050565b60007f01ffc9a7000000000000000000000000000000000000000000000000000000007bffffffffffffffffffffffffffffffffffffffffffffffffffffffff1916827bffffffffffffffffffffffffffffffffffffffffffffffffffffffff1916149050919050565b6060611dcc8273ffffffffffffffffffffffffffffffffffffffff16601460ff16611dd3565b9050919050565b606060006002836002611de69190613634565b611df09190613676565b67ffffffffffffffff811115611e0957611e086126fa565b5b6040519080825280601f01601f191660200182016040528015611e3b5781602001600182028036833780820191505090505b5090507f300000000000000000000000000000000000000000000000000000000000000081600081518110611e7357611e726136aa565b5b60200101907effffffffffffffffffffffffffffffffffffffffffffffffffffffffffffff1916908160001a9053507f780000000000000000000000000000000000000000000000000000000000000081600181518110611ed757611ed66136aa565b5b60200101907effffffffffffffffffffffffffffffffffffffffffffffffffffffffffffff1916908160001a90535060006001846002611f179190613634565b611f219190613676565b90505b6001811115611fc1577f3031323334353637383961626364656600000000000000000000000000000000600f861660108110611f6357611f626136aa565b5b1a60f81b828281518110611f7a57611f796136aa565b5b60200101907effffffffffffffffffffffffffffffffffffffffffffffffffffffffffffff1916908160001a905350600485901c945080611fba906136d9565b9050611f24565b5060008414612005576040517f08c379a0000000000000000000000000000000000000000000000000000000008152600401611ffc9061374e565b60405180910390fd5b8091505092915050565b600073ffffffffffffffffffffffffffffffffffffffff168273ffffffffffffffffffffffffffffffffffffffff160361207e576040517f08c379a0000000000000000000000000000000000000000000000000000000008152600401612075906137ba565b60405180910390fd5b612087816119a6565b156120c7576040517f08c379a00000000000000000000000000000000000000000000000000000000081526004016120be90613826565b60405180910390fd5b6120d5600083836001611ac9565b6120de816119a6565b1561211e576040517f08c379a000000000000000000000000000000000000000000000000000000000815260040161211590613826565b60405180910390fd5b6001600360008473ffffffffffffffffffffffffffffffffffffffff1673ffffffffffffffffffffffffffffffffffffffff16815260200190815260200160002060008282540192505081905550816002600083815260200190815260200160002060006101000a81548173ffffffffffffffffffffffffffffffffffffffff021916908373ffffffffffffffffffffffffffffffffffffffff160217905550808273ffffffffffffffffffffffffffffffffffffffff16600073ffffffffffffffffffffffffffffffffffffffff167fddf252ad1be2c89b69c2b068fc378daa952ba7f163c4a11628f55a4df523b3ef60405160405180910390a4612228600083836001611acf565b5050565b6000808273ffffffffffffffffffffffffffffffffffffffff163b119050919050565b6000604051905090565b600080fd5b600080fd5b60007fffffffff0000000000000000000000000000000000000000000000000000000082169050919050565b61229881612263565b81146122a357600080fd5b50565b6000813590506122b58161228f565b92915050565b6000602082840312156122d1576122d0612259565b5b60006122df848285016122a6565b91505092915050565b60008115159050919050565b6122fd816122e8565b82525050565b600060208201905061231860008301846122f4565b92915050565b600081519050919050565b600082825260208201905092915050565b60005b8381101561235857808201518184015260208101905061233d565b60008484015250505050565b6000601f19601f8301169050919050565b60006123808261231e565b61238a8185612329565b935061239a81856020860161233a565b6123a381612364565b840191505092915050565b600060208201905081810360008301526123c88184612375565b905092915050565b6000819050919050565b6123e3816123d0565b81146123ee57600080fd5b50565b600081359050612400816123da565b92915050565b60006020828403121561241c5761241b612259565b5b600061242a848285016123f1565b91505092915050565b600073ffffffffffffffffffffffffffffffffffffffff82169050919050565b600061245e82612433565b9050919050565b61246e81612453565b82525050565b60006020820190506124896000830184612465565b92915050565b61249881612453565b81146124a357600080fd5b50565b6000813590506124b58161248f565b92915050565b600080604083850312156124d2576124d1612259565b5b60006124e0858286016124a6565b92505060206124f1858286016123f1565b9150509250929050565b60006060820190506125106000830186612465565b81810360208301526125228185612375565b905061253160408301846122f4565b949350505050565b60008060006060848603121561255257612551612259565b5b6000612560868287016124a6565b9350506020612571868287016124a6565b9250506040612582868287016123f1565b9150509250925092565b6000819050919050565b61259f8161258c565b81146125aa57600080fd5b50565b6000813590506125bc81612596565b92915050565b6000602082840312156125d8576125d7612259565b5b60006125e6848285016125ad565b91505092915050565b6125f88161258c565b82525050565b600060208201905061261360008301846125ef565b92915050565b600080604083850312156126305761262f612259565b5b600061263e858286016125ad565b925050602061264f858286016124a6565b9150509250929050565b60006020828403121561266f5761266e612259565b5b600061267d848285016124a6565b91505092915050565b61268f816123d0565b82525050565b60006020820190506126aa6000830184612686565b92915050565b600080604083850312156126c7576126c6612259565b5b60006126d5858286016123f1565b92505060206126e6858286016124a6565b9150509250929050565b600080fd5b600080fd5b7f4e487b7100000000000000000000000000000000000000000000000000000000600052604160045260246000fd5b61273282612364565b810181811067ffffffffffffffff82111715612751576127506126fa565b5b80604052505050565b600061276461224f565b90506127708282612729565b919050565b600067ffffffffffffffff8211156127905761278f6126fa565b5b61279982612364565b9050602081019050919050565b82818337600083830152505050565b60006127c86127c384612775565b61275a565b9050828152602081018484840111156127e4576127e36126f5565b5b6127ef8482856127a6565b509392505050565b600082601f83011261280c5761280b6126f0565b5b813561281c8482602086016127b5565b91505092915050565b60006020828403121561283b5761283a612259565b5b600082013567ffffffffffffffff8111156128595761285861225e565b5b612865848285016127f7565b91505092915050565b612877816122e8565b811461288257600080fd5b50565b6000813590506128948161286e565b92915050565b600080604083850312156128b1576128b0612259565b5b60006128bf858286016124a6565b92505060206128d085828601612885565b9150509250929050565b600067ffffffffffffffff8211156128f5576128f46126fa565b5b6128fe82612364565b9050602081019050919050565b600061291e612919846128da565b61275a565b90508281526020810184848401111561293a576129396126f5565b5b6129458482856127a6565b509392505050565b600082601f830112612962576129616126f0565b5b813561297284826020860161290b565b91505092915050565b6000806000806080858703121561299557612994612259565b5b60006129a3878288016124a6565b94505060206129b4878288016124a6565b93505060406129c5878288016123f1565b925050606085013567ffffffffffffffff8111156129e6576129e561225e565b5b6129f28782880161294d565b91505092959194509250565b60008060408385031215612a1557612a14612259565b5b6000612a23858286016124a6565b9250506020612a34858286016124a6565b9150509250929050565b7f4e487b7100000000000000000000000000000000000000000000000000000000600052602260045260246000fd5b60006002820490506001821680612a8557607f821691505b602082108103612a9857612a97612a3e565b5b50919050565b7f4552433732313a20617070726f76616c20746f2063757272656e74206f776e6560008201527f7200000000000000000000000000000000000000000000000000000000000000602082015250565b6000612afa602183612329565b9150612b0582612a9e565b604082019050919050565b60006020820190508181036000830152612b2981612aed565b9050919050565b7f4552433732313a20617070726f76652063616c6c6572206973206e6f7420746f60008201527f6b656e206f776e6572206f7220617070726f76656420666f7220616c6c000000602082015250565b6000612b8c603d83612329565b9150612b9782612b30565b604082019050919050565b60006020820190508181036000830152612bbb81612b7f565b9050919050565b7f4552433732313a2063616c6c6572206973206e6f7420746f6b656e206f776e6560008201527f72206f7220617070726f76656400000000000000000000000000000000000000602082015250565b6000612c1e602d83612329565b9150612c2982612bc2565b604082019050919050565b60006020820190508181036000830152612c4d81612c11565b9050919050565b7f416363657373436f6e74726f6c3a2063616e206f6e6c792072656e6f756e636560008201527f20726f6c657320666f722073656c660000000000000000000000000000000000602082015250565b6000612cb0602f83612329565b9150612cbb82612c54565b604082019050919050565b60006020820190508181036000830152612cdf81612ca3565b9050919050565b7f4552433732313a20696e76616c696420746f6b656e2049440000000000000000600082015250565b6000612d1c601883612329565b9150612d2782612ce6565b602082019050919050565b60006020820190508181036000830152612d4b81612d0f565b9050919050565b7f4552433732313a2061646472657373207a65726f206973206e6f74206120766160008201527f6c6964206f776e65720000000000000000000000000000000000000000000000602082015250565b6000612dae602983612329565b9150612db982612d52565b604082019050919050565b60006020820190508181036000830152612ddd81612da1565b9050919050565b60008190508160005260206000209050919050565b60006020601f8301049050919050565b600082821b905092915050565b600060088302612e467fffffffffffffffffffffffffffffffffffffffffffffffffffffffffffffffff82612e09565b612e508683612e09565b95508019841693508086168417925050509392505050565b6000819050919050565b6000612e8d612e88612e83846123d0565b612e68565b6123d0565b9050919050565b6000819050919050565b612ea783612e72565b612ebb612eb382612e94565b848454612e16565b825550505050565b600090565b612ed0612ec3565b612edb818484612e9e565b505050565b5b81811015612eff57612ef4600082612ec8565b600181019050612ee1565b5050565b601f821115612f4457612f1581612de4565b612f1e84612df9565b81016020851015612f2d578190505b612f41612f3985612df9565b830182612ee0565b50505b505050565b600082821c905092915050565b6000612f6760001984600802612f49565b1980831691505092915050565b6000612f808383612f56565b9150826002028217905092915050565b612f998261231e565b67ffffffffffffffff811115612fb257612fb16126fa565b5b612fbc8254612a6d565b612fc7828285612f03565b600060209050601f831160018114612ffa5760008415612fe8578287015190505b612ff28582612f74565b86555061305a565b601f19841661300886612de4565b60005b828110156130305784890151825560018201915060208501945060208101905061300b565b8683101561304d5784890151613049601f891682612f56565b8355505b6001600288020188555050505b505050505050565b7f4576656e7420646f6573206e6f742065786973742e0000000000000000000000600082015250565b6000613098601583612329565b91506130a382613062565b602082019050919050565b600060208201905081810360008301526130c78161308b565b9050919050565b7f417474656e6465652068617320616c726561647920636c61696d65642074686960008201527f732062616467652e000000000000000000000000000000000000000000000000602082015250565b600061312a602883612329565b9150613135826130ce565b604082019050919050565b600060208201905081810360008301526131598161311d565b9050919050565b7f4552433732314d657461646174613a2055524920717565727920666f72206e6f60008201527f6e6578697374656e7420746f6b656e0000000000000000000000000000000000602082015250565b60006131bc602f83612329565b91506131c782613160565b604082019050919050565b600060208201905081810360008301526131eb816131af565b9050919050565b7f4552433732313a207472616e736665722066726f6d20696e636f72726563742060008201527f6f776e6572000000000000000000000000000000000000000000000000000000602082015250565b600061324e602583612329565b9150613259826131f2565b604082019050919050565b6000602082019050818103600083015261327d81613241565b9050919050565b7f4552433732313a207472616e7366657220746f20746865207a65726f2061646460008201527f7265737300000000000000000000000000000000000000000000000000000000602082015250565b60006132e0602483612329565b91506132eb82613284565b604082019050919050565b6000602082019050818103600083015261330f816132d3565b9050919050565b7f4552433732313a20617070726f766520746f2063616c6c657200000000000000600082015250565b600061334c601983612329565b915061335782613316565b602082019050919050565b6000602082019050818103600083015261337b8161333f565b9050919050565b7f4552433732313a207472616e7366657220746f206e6f6e20455243373231526560008201527f63656976657220696d706c656d656e7465720000000000000000000000000000602082015250565b60006133de603283612329565b91506133e982613382565b604082019050919050565b6000602082019050818103600083015261340d816133d1565b9050919050565b600081905092915050565b7f416363657373436f6e74726f6c3a206163636f756e7420000000000000000000600082015250565b6000613455601783613414565b91506134608261341f565b601782019050919050565b60006134768261231e565b6134808185613414565b935061349081856020860161233a565b80840191505092915050565b7f206973206d697373696e6720726f6c6520000000000000000000000000000000600082015250565b60006134d2601183613414565b91506134dd8261349c565b601182019050919050565b60006134f382613448565b91506134ff828561346b565b915061350a826134c5565b9150613516828461346b565b91508190509392505050565b600081519050919050565b600082825260208201905092915050565b600061354982613522565b613553818561352d565b935061356381856020860161233a565b61356c81612364565b840191505092915050565b600060808201905061358c6000830187612465565b6135996020830186612465565b6135a66040830185612686565b81810360608301526135b8818461353e565b905095945050505050565b6000815190506135d28161228f565b92915050565b6000602082840312156135ee576135ed612259565b5b60006135fc848285016135c3565b91505092915050565b7f4e487b7100000000000000000000000000000000000000000000000000000000600052601160045260246000fd5b600061363f826123d0565b915061364a836123d0565b9250828202613658816123d0565b9150828204841483151761366f5761366e613605565b5b5092915050565b6000613681826123d0565b915061368c836123d0565b92508282019050808211156136a4576136a3613605565b5b92915050565b7f4e487b7100000000000000000000000000000000000000000000000000000000600052603260045260246000fd5b60006136e4826123d0565b9150600082036136f7576136f6613605565b5b600182039050919050565b7f537472696e67733a20686578206c656e67746820696e73756666696369656e74600082015250565b6000613738602083612329565b915061374382613702565b602082019050919050565b600060208201905081810360008301526137678161372b565b9050919050565b7f4552433732313a206d696e7420746f20746865207a65726f2061646472657373600082015250565b60006137a4602083612329565b91506137af8261376e565b602082019050919050565b600060208201905081810360008301526137d381613797565b9050919050565b7f4552433732313a20746f6b656e20616c7265616479206d696e74656400000000600082015250565b6000613810601c83612329565b915061381b826137da565b602082019050919050565b6000602082019050818103600083015261383f81613803565b905091905056fea26469706673582212209fc6f25daf4320d9a0206b6932bbdb84726660b6d163c28f5187ddecfb36277264736f6c63430008140033",
  "linkReferences": {},
  "deployedLinkReferences": {}
}